{
  "contractName": "Wallet",
  "abi": [
    {
      "inputs": [],
      "payable": false,
      "stateMutability": "nonpayable",
      "type": "constructor"
    },
    {
      "constant": false,
      "inputs": [
        {
          "internalType": "uint256",
          "name": "x",
          "type": "uint256"
        }
      ],
      "name": "set",
      "outputs": [],
      "payable": false,
      "stateMutability": "nonpayable",
      "type": "function"
    },
    {
      "constant": true,
      "inputs": [],
      "name": "getMyVal",
      "outputs": [
        {
          "internalType": "uint256",
          "name": "",
          "type": "uint256"
        }
      ],
      "payable": false,
      "stateMutability": "view",
      "type": "function"
    },
    {
      "constant": true,
      "inputs": [],
      "name": "get",
      "outputs": [
        {
          "internalType": "uint256",
          "name": "",
          "type": "uint256"
        }
      ],
      "payable": false,
      "stateMutability": "view",
      "type": "function"
    }
  ],
  "bytecode": "0x608060405234801561001057600080fd5b50606460018190555060f6806100276000396000f3fe6080604052348015600f57600080fd5b5060043610603c5760003560e01c806360fe47b11460415780636d4ce63c14606c578063a1a5d7c0146088575b600080fd5b606a60048036036020811015605557600080fd5b810190808035906020019092919050505060a4565b005b607260ae565b6040518082815260200191505060405180910390f35b608e60b7565b6040518082815260200191505060405180910390f35b8060008190555050565b60008054905090565b600060015490509056fea265627a7a723158201b3c94cdd3ad987c338b14aba7d7b4f66dad55ac06619ac8b17cb9c51c31be4164736f6c63430005100032",
  "source": "pragma solidity >= 0.5.0 < 0.7.0;\n\n\ncontract Wallet{\n  uint storedData;\n  uint _myVal;\n\n  constructor() public{\n  \t_myVal =100;\n  }\n\n  function set(uint x) public {\n    storedData = x;\n  }\n\n  function  getMyVal() public view returns(uint){\n  \treturn _myVal;\n  }\n  \n  function get() public view returns (uint) {\n    return storedData;\n  }\n}",
  "sourcePath": "/home/zaryab/blockchain_begins/all_about_ethereum/dapps/multiSIG_wallet/contracts/Wallet.sol",
  "compiler": {
    "name": "solc",
    "version": "0.5.16+commit.9c3226ce.Emscripten.clang"
  },
  "schemaVersion": "3.2.5",
  "updatedAt": "2020-10-02T04:45:25.189Z",
  "networkType": "ethereum",
  "devdoc": {
    "methods": {}
  },
  "userdoc": {
    "methods": {}
  }
}