{
  "contractName": "Wallet",
  "abi": [
    {
      "inputs": [
        {
          "internalType": "address[]",
          "name": "_owners",
          "type": "address[]"
        },
        {
          "internalType": "uint8",
          "name": "_requiredVote",
          "type": "uint8"
        }
      ],
      "payable": false,
      "stateMutability": "nonpayable",
      "type": "constructor"
    },
    {
      "constant": true,
      "inputs": [
        {
          "internalType": "address",
          "name": "",
          "type": "address"
        }
      ],
      "name": "checkOwnership",
      "outputs": [
        {
          "internalType": "bool",
          "name": "",
          "type": "bool"
        }
      ],
      "payable": false,
      "stateMutability": "view",
      "type": "function"
    },
    {
      "constant": true,
      "inputs": [
        {
          "internalType": "uint256",
          "name": "",
          "type": "uint256"
        }
      ],
      "name": "owners",
      "outputs": [
        {
          "internalType": "address",
          "name": "",
          "type": "address"
        }
      ],
      "payable": false,
      "stateMutability": "view",
      "type": "function"
    },
    {
      "constant": true,
      "inputs": [],
      "name": "requiredVote",
      "outputs": [
        {
          "internalType": "uint8",
          "name": "",
          "type": "uint8"
        }
      ],
      "payable": false,
      "stateMutability": "view",
      "type": "function"
    },
    {
      "constant": true,
      "inputs": [
        {
          "internalType": "uint256",
          "name": "",
          "type": "uint256"
        }
      ],
      "name": "transactionReqs",
      "outputs": [
        {
          "internalType": "uint256",
          "name": "value",
          "type": "uint256"
        },
        {
          "internalType": "uint8",
          "name": "votesReceived",
          "type": "uint8"
        },
        {
          "internalType": "address",
          "name": "requestBy",
          "type": "address"
        },
        {
          "internalType": "address",
          "name": "recipient",
          "type": "address"
        },
        {
          "internalType": "bool",
          "name": "isExecuted",
          "type": "bool"
        },
        {
          "internalType": "string",
          "name": "reason",
          "type": "string"
        }
      ],
      "payable": false,
      "stateMutability": "view",
      "type": "function"
    }
  ],
  "bytecode": "0x608060405234801561001057600080fd5b5060405161092a38038061092a8339818101604052604081101561003357600080fd5b810190808051604051939291908464010000000082111561005357600080fd5b8382019150602082018581111561006957600080fd5b825186602082028301116401000000008211171561008657600080fd5b8083526020830192505050908051906020019060200280838360005b838110156100bd5780820151818401526020810190506100a2565b5050505090500160405260200180519060200190929190505050600082511161014e576040517f08c379a000000000000000000000000000000000000000000000000000000000815260040180806020018281038252601c8152602001807f4d6f7265207468616e206f6e65204f776e65722052657175697265640000000081525060200191505060405180910390fd5b60008160ff16116101aa576040517f08c379a00000000000000000000000000000000000000000000000000000000081526004018080602001828103825260268152602001806108d26026913960400191505060405180910390fd5b81518160ff161115610207576040517f08c379a00000000000000000000000000000000000000000000000000000000081526004018080602001828103825260328152602001806108f86032913960400191505060405180910390fd5b60008090505b825181101561045d57600083828151811061022457fe5b60200260200101519050600073ffffffffffffffffffffffffffffffffffffffff168173ffffffffffffffffffffffffffffffffffffffff1614156102d1576040517f08c379a00000000000000000000000000000000000000000000000000000000081526004018080602001828103825260148152602001807f496e76616c6964204f776e65722050617373656400000000000000000000000081525060200191505060405180910390fd5b600260008273ffffffffffffffffffffffffffffffffffffffff1673ffffffffffffffffffffffffffffffffffffffff16815260200190815260200160002060009054906101000a900460ff1615610391576040517f08c379a00000000000000000000000000000000000000000000000000000000081526004018080602001828103825260148152602001807f4f776e657220416c72656164792045786973747300000000000000000000000081525060200191505060405180910390fd5b6001600260008373ffffffffffffffffffffffffffffffffffffffff1673ffffffffffffffffffffffffffffffffffffffff16815260200190815260200160002060006101000a81548160ff02191690831515021790555060018190806001815401808255809150509060018203906000526020600020016000909192909190916101000a81548173ffffffffffffffffffffffffffffffffffffffff021916908373ffffffffffffffffffffffffffffffffffffffff1602179055505050808060010191505061020d565b50806000806101000a81548160ff021916908360ff1602179055505050610449806104896000396000f3fe608060405234801561001057600080fd5b506004361061004c5760003560e01c8063025e7c27146100515780630c8b234e146100bf57806375005a2f1461011b578063c77595c514610247575b600080fd5b61007d6004803603602081101561006757600080fd5b810190808035906020019092919050505061026b565b604051808273ffffffffffffffffffffffffffffffffffffffff1673ffffffffffffffffffffffffffffffffffffffff16815260200191505060405180910390f35b610101600480360360208110156100d557600080fd5b81019080803573ffffffffffffffffffffffffffffffffffffffff1690602001909291905050506102a7565b604051808215151515815260200191505060405180910390f35b6101476004803603602081101561013157600080fd5b81019080803590602001909291905050506102c7565b604051808781526020018660ff1660ff1681526020018573ffffffffffffffffffffffffffffffffffffffff1673ffffffffffffffffffffffffffffffffffffffff1681526020018473ffffffffffffffffffffffffffffffffffffffff1673ffffffffffffffffffffffffffffffffffffffff1681526020018315151515815260200180602001828103825283818151815260200191508051906020019080838360005b838110156102075780820151818401526020810190506101ec565b50505050905090810190601f1680156102345780820380516001836020036101000a031916815260200191505b5097505050505050505060405180910390f35b61024f610402565b604051808260ff1660ff16815260200191505060405180910390f35b6001818154811061027857fe5b906000526020600020016000915054906101000a900473ffffffffffffffffffffffffffffffffffffffff1681565b60026020528060005260406000206000915054906101000a900460ff1681565b600381815481106102d457fe5b90600052602060002090600502016000915090508060000154908060010160009054906101000a900460ff16908060010160019054906101000a900473ffffffffffffffffffffffffffffffffffffffff16908060020160009054906101000a900473ffffffffffffffffffffffffffffffffffffffff16908060020160149054906101000a900460ff1690806003018054600181600116156101000203166002900480601f0160208091040260200160405190810160405280929190818152602001828054600181600116156101000203166002900480156103f85780601f106103cd576101008083540402835291602001916103f8565b820191906000526020600020905b8154815290600101906020018083116103db57829003601f168201915b5050505050905086565b6000809054906101000a900460ff168156fea265627a7a72315820622fadd1090c44444ec25830eebc654fccc26da5218028b844f3e97e571bc71364736f6c6343000510003243616e6e6f742070726f6365656420776974682053696e676c6520566f74652057616c6c6574526571756972656420566f74652063616e6e6f74206265206d6f7265207468616e206e756d626572206f66204f776e657273",
  "source": "pragma solidity >= 0.5.0 < 0.7.0;\n\n\ncontract Wallet{\n\tuint8 public requiredVote;\n\taddress[] public owners;\n\n\tmapping (address => bool) public checkOwnership;\n\n\tstruct TxnRequest{\n\t\tuint256 value;\n\t\tuint8 votesReceived; \n\t\taddress requestBy;\n\t\taddress recipient;\n\t\tbool isExecuted;\n\t\tstring reason;\n\t\tmapping(address => bool) voted;\n\t}\n\t\n\tTxnRequest[] public transactionReqs;\n\n\tconstructor(address[] memory _owners, uint8 _requiredVote) public{\n\t\trequire (_owners.length > 0, \"More than one Owner Required\");\n\t\trequire (_requiredVote > 0, \"Cannot proceed with Single Vote Wallet\");\n\t\trequire (_requiredVote <= _owners.length, \"Required Vote cannot be more than number of Owners\");\n\n\t\tfor(uint i=0; i<_owners.length; i++){\n\t\t\taddress owner = _owners[i];\n\t\t\trequire(owner != address(0), \"Invalid Owner Passed\");\n\t\t\trequire (!checkOwnership[owner], \"Owner Already Exists\");\n\n\t\t\tcheckOwnership[owner] = true;\n\t\t\towners.push(owner);\n\t\t}\n\t\trequiredVote = _requiredVote;\t\n\t}\n\n\n\t\n}",
  "sourcePath": "/home/zaryab/blockchain_begins/all_about_ethereum/dapps/multiSIG_wallet/contracts/Wallet.sol",
  "compiler": {
    "name": "solc",
    "version": "0.5.16+commit.9c3226ce.Emscripten.clang"
  },
  "schemaVersion": "3.2.5",
  "updatedAt": "2020-10-02T05:23:47.946Z",
  "devdoc": {
    "methods": {}
  },
  "userdoc": {
    "methods": {}
  }
}